:100000000C9435010C9466010C9466010C94660105
:100010000C9466010C9466010C9466010C946601C4
:100020000C9466010C9466010C9466010C946601B4
:100030000C9466010C9466010C9466010C946601A4
:100040000C9466010C9466010C9466010C94660194
:100050000C9466010C9466010C9466010C94E00407
:100060000C9466010C94AD040C94D5030C946601B9
:100070000C9466010C9466010C9466010C94660164
:100080000C9466010C9466010C9466010C94660154
:100090000C947A040C9496030C9466010C946601FB
:1000A0000C9466010C9466010C9466010C94660134
:1000B0000C9466010C9466010C9466010C94660124
:1000C0000C9466010C9466010C9466010C94470430
:1000D0000C9457030C9466010C9414040C941803AC
:1000E0000C9466018F01920185018901C901960175
:1000F0009A01A001A401A801AE01B201B601C90193
:10010000BC01C001C4010C9421020C942A050C947A
:10011000A8010C9492010C94C4010C94BC010C94A1
:100120008F010C942C020C9496010C94A2020C9456
:10013000AE010C9489010C94C9010C94B2010C9489
:100140009A010C94DF010C94C0010C94A4010C944E
:100150004C020C94A0010C94B6010C9468020C940F
:10016000850100002100240027002A002D00300016
:10017000330001010000040107010A010000220010
:10018000250028002B002E00310034000201000061
:10019000050108010B010505050507050808080804
:1001A000020202020A0A080804040404010101010F
:1001B000010101010303030303030303040707070A
:1001C0000C0C0C0C0C0C0C0C0202020206060606AF
:1001D000060606060B0B0B0B0B0B0B0B010210207C
:1001E000200808102040102040800201020108046D
:1001F0000201010204081020408080402010080401
:100200000201800402018040201008040201080459
:10021000020101020408102040800102040810209D
:1002200040800000090A02080B0C0D0706030401B8
:1002300000000000000000000000000000000000BE
:10024000000000000000000000000000000011108D
:100250000F0000000000000000000000000000008F
:1002600000000000000000002A0511241FBECFEF8F
:10027000D1E2DEBFCDBF00E00CBF12E0A0E0B2E0F3
:10028000E6E1FEE000E00BBF02C007900D92AC314A
:10029000B107D9F724E0ACE1B2E001C01D92AD3C5A
:1002A000B207E1F711E0C5E3D1E000E006C0219715
:1002B0000109802FFE010E940107C433D10780E0AD
:1002C0000807A9F70E94FC050C94FE060C94000098
:1002D000382FEFE2F2E04491E9EEF1E02491E3EA15
:1002E000F1E09491992309F468C0442309F451C0C2
:1002F00050E0FA013197E131F10508F04AC0882752
:10030000EE58FF4F8F4F0C940107809180008F773C
:1003100003C0809180008F7D809380003AC084B5B7
:100320008F7702C084B58F7D84BD33C08091B000CB
:100330008F7703C08091B0008F7D8093B00029C07B
:10034000809190008F7707C0809190008F7D03C0CF
:1003500080919000877F809390001BC08091A000C7
:100360008F7707C08091A0008F7D03C08091A0008F
:10037000877F8093A0000DC0809120018F7707C0F8
:10038000809120018F7D03C080912001877F809321
:100390002001E92FF0E0EE0FFF1FE458FE4FA5917A
:1003A000B4919FB7F894311104C08C912095282303
:1003B00002C0EC912E2B2C939FBF089508950F93AC
:1003C0001F93CF93DF93FC01A685B7858D01005C59
:1003D0001F4FE8018881998101968F739927AD019C
:1003E0004E5B5F4FEA012881398128173907D1F325
:1003F000E80128813981A20FB31F6C93A685B785C8
:10040000A05CBF4F11969C938E93A689B7892C91BF
:1004100081E090E0078C02C0880F991F0A94E2F7F0
:10042000822B8C9381E081A30488F589E02D808163
:100430008064808381E090E0DF91CF911F910F91E4
:100440000895FC0181A1882329F0A489B5898C91A4
:1004500086FFFBCF11A20895FC01A485B585FD019F
:10046000E05CFF4F20813181329680819181281795
:10047000390779F080819181A80FB91F8C91208173
:1004800031812F5F3F4F2F7333273183208390E0DB
:1004900008958FEF9FEF0895DC011C96ED91FC917C
:1004A0001D97DF01A05CBF4F2D913C9111971296D3
:1004B0008D919C9111972817390739F08D919C9156
:1004C000E80FF91F808190E008958FEF9FEF089566
:1004D000FC0124853585F901E05CFF4F8081918125
:1004E000329620813181821B930B8F739927089557
:1004F0008BEA94E00E94680281E094E00E94680226
:1005000087E593E00E9468028DEA92E00C9468020D
:10051000FB01E05CFF4F20813181DB01AE5BBF4F0F
:100520004D915C912F5F3F4F2F7333274217530735
:1005300041F040815181DB01A40FB51F8C933183C1
:1005400020830895CF92DF92EF92FF920F931F9333
:10055000CF93DF936C01EB017B01E40EF51E00E00D
:1005600010E0CE15DF0561F06991D601ED91FC91A7
:100570000190F081E02DC6011995080F191FF1CFE8
:10058000C801DF91CF911F910F91FF90EF90DF9005
:10059000CF9008953FB7F894809121029091220264
:1005A000A0912302B091240226B5A89B05C02F3F3D
:1005B00019F00196A11DB11D3FBFBA2FA92F982F89
:1005C0008827820F911DA11DB11DBC01CD0142E004
:1005D000660F771F881F991F4A95D1F70895CF920C
:1005E000DF92EF92FF92CF93DF930E94CA02EB015A
:1005F00088EEC82E83E0D82EE12CF12C0E94CA028E
:100600006C1B7D0B683E7340C8F381E0C81AD108AB
:10061000E108F108C851DC4FC114D104E104F10430
:1006200069F7DF91CF91FF90EF90DF90CF90089521
:100630001F920F920FB60F9211240BB60F922F93A9
:100640003F938F939F93EF93FF9320916502309197
:10065000660280916702909168022817390731F489
:10066000809131018F7D8093310114C0E091670248
:10067000F0916802EB5DFD4F2081809167029091BF
:10068000680201968F73992790936802809367029E
:1006900020933601FF91EF919F918F913F912F9180
:1006A0000F900BBE0F900FBE0F901F9018951F92CA
:1006B0000F920FB60F9211240BB60F922F933F9308
:1006C0008F939F93EF93FF9320910F03309110032B
:1006D00080911103909112032817390731F480910A
:1006E000D1008F7D8093D10014C0E0911103F0916F
:1006F0001203E153FD4F2081809111039091120369
:1007000001968F739927909312038093110320937E
:10071000D600FF91EF919F918F913F912F910F9074
:100720000BBE0F900FBE0F901F9018951F920F9247
:100730000FB60F9211240BB60F922F933F938F9306
:100740009F93EF93FF932091B9033091BA03809167
:10075000BB039091BC032817390731F48091C9007D
:100760008F7D8093C90014C0E091BB03F091BC035E
:10077000E758FC4F20818091BB039091BC03019608
:100780008F7399279093BC038093BB032093CE0073
:10079000FF91EF919F918F913F912F910F900BBE01
:1007A0000F900FBE0F901F9018951F920F920FB6CB
:1007B0000F9211240BB60F922F933F938F939F9319
:1007C000EF93FF932091630430916404809165045A
:1007D000909166042817390731F48091C1008F7D0C
:1007E0008093C10014C0E0916504F0916604ED5D52
:1007F000FB4F2081809165049091660401968F7370
:10080000992790936604809365042093C600FF9116
:10081000EF919F918F913F912F910F900BBE0F9071
:100820000FBE0F901F9018951F920F920FB60F9248
:1008300011240BB60F922F933F934F935F936F93B7
:100840007F938F939F93AF93BF93EF93FF93809189
:10085000300182FD07C08091360169E672E00E9496
:10086000880202C080913601FF91EF91BF91AF9154
:100870009F918F917F916F915F914F913F912F91B8
:100880000F900BBE0F900FBE0F901F9018951F92E8
:100890000F920FB60F9211240BB60F922F933F9326
:1008A0004F935F936F937F938F939F93AF93BF9378
:1008B000EF93FF938091D00082FD07C08091D60016
:1008C00063E173E00E94880202C08091D600FF912C
:1008D000EF91BF91AF919F918F917F916F915F91B8
:1008E0004F913F912F910F900BBE0F900FBE0F9025
:1008F0001F9018951F920F920FB60F9211240BB6EE
:100900000F922F933F934F935F936F937F938F93A8
:100910009F93AF93BF93EF93FF938091C80082FDA5
:1009200007C08091CE006DEB73E00E94880202C088
:100930008091CE00FF91EF91BF91AF919F918F91E8
:100940007F916F915F914F913F912F910F900BBECF
:100950000F900FBE0F901F9018951F920F920FB619
:100960000F9211240BB60F922F933F934F935F93E7
:100970006F937F938F939F93AF93BF93EF93FF9367
:100980008091C00082FD07C08091C60067E674E0D8
:100990000E94880202C08091C600FF91EF91BF9132
:1009A000AF919F918F917F916F915F914F913F9107
:1009B0002F910F900BBE0F900FBE0F901F901895A8
:1009C0001F920F920FB60F9211242F933F938F9384
:1009D0009F93AF93BF9380911D0290911E02A091AF
:1009E0001F02B091200230911C0223E0230F2D370B
:1009F00020F40196A11DB11D05C026E8230F029623
:100A0000A11DB11D20931C0280931D0290931E0214
:100A1000A0931F02B09320028091210290912202A4
:100A2000A0912302B09124020196A11DB11D8093D3
:100A3000210290932202A0932302B0932402BF913B
:100A4000AF919F918F913F912F910F900FBE0F907B
:100A50001F901895CF92DF92EF92FF92EBEAF4E0AD
:100A60001382128288EEC82E83E0D82EE12CF12C5E
:100A7000C482D582E682F78264E072E0718360838B
:100A800087E694E09587848783E294E0978786875A
:100A900085EC90E0918B808B84EC90E0938B828B43
:100AA00080EC90E0958B848B81EC90E0978B868B2B
:100AB00082EC90E0918F808F86EC90E0938F828F14
:100AC00044E0448F33E0358F27E0268F95E0978F01
:100AD00081E080A3E1E0F4E013821282C482D58237
:100AE000E682F78271836083ADEBB3E0B587A487BC
:100AF000A9E7B3E0B787A687ADECB0E0B18BA08BD8
:100B0000ACECB0E0B38BA28BA8ECB0E0B58BA48BBF
:100B1000A9ECB0E0B78BA68BAAECB0E0B18FA08FA8
:100B2000AEECB0E0B38FA28F448F358F268F978FB6
:100B300080A3E7E5F3E013821282C482D582E682C5
:100B4000F78271836083A3E1B3E0B587A487AFEC3C
:100B5000B2E0B787A687A5EDB0E0B18BA08BA4ED7E
:100B6000B0E0B38BA28BA0EDB0E0B58BA48BA1ED70
:100B7000B0E0B78BA68BA2EDB0E0B18FA08FA6ED51
:100B8000B0E0B38FA28F448F358F268F978F80A3CD
:100B9000EDEAF2E013821282C482D582E682F78205
:100BA0007183608369E672E07587648765E272E04D
:100BB0007787668765E371E0718B608B64E371E032
:100BC000738B628B60E371E0758B648B61E371E022
:100BD000778B668B62E371E0718F608F66E371E003
:100BE000738F628F448F358F268F978F80A3FF90EE
:100BF000EF90DF90CF900895789484B5826084BDA3
:100C000084B5816084BD85B5826085BD85B5816010
:100C100085BD80916E00816080936E00109281008E
:100C20008091810082608093810080918100816049
:100C3000809381008091800081608093800080910A
:100C4000B10084608093B1008091B0008160809396
:100C5000B00080919100826080939100809191001A
:100C600081608093910080919000816080939000DA
:100C70008091A10082608093A1008091A100816099
:100C80008093A1008091A00081608093A00080915A
:100C900021018260809321018091210181608093F4
:100CA00021018091200181608093200180917A0050
:100CB000846080937A0080917A00826080937A00C9
:100CC00080917A00816080937A0080917A008068B8
:100CD00080937A001092C100E9EEF1E02491E3EAFA
:100CE000F1E08491882399F090E0880F991FFC012E
:100CF000EE59FE4FA591B491FC01E458FE4F859149
:100D000094918FB7F894EC91E22BEC938FBFE09124
:100D1000BF04F091C00481E090E09C010090CB04FE
:100D200002C0220F331F0A94E2F72083E091BB0434
:100D3000F091BC041082E091BD04F091BE042FEC50
:100D400020831092CC04E091C104F091C204408150
:100D50009C010090C70402C0220F331F0A94E2F7DF
:100D6000242B2083E091C104F091C20440819C01B6
:100D70000090C80402C0220F331F0A94E2F7242B0C
:100D80002083E091C104F091C20440819C01009055
:100D9000C90402C0220F331F0A94E2F7242B2083D8
:100DA000E091C104F091C20420810090CA0402C005
:100DB000880F991F0A94E2F780958223808381E04F
:100DC0000E9468010E94EF0280E00E9468010E9478
:100DD000EF024BE050E060E172E08BEA94E00E94A9
:100DE000A2026DE08BEA94E00E94DF016AE08BEAE8
:100DF00094E00E94DF010E947802E1CFF8940C9405
:100E00000907EE0FFF1F881F8BBF0790F691E02D9B
:060E10001994F894FFCFD5
:100E160000000000DF01A20268022C024C0221023F
:0C0E260068656C6C6F20776F726C640064
:00000001FF
